:100000000C94A2180C94CC180C94CC180C94CC180A
:100010000C94CC180C94CC180C94CC180C94CC18D0
:100020000C94CC180C94CC180C94CC180C94CC18C0
:100030000C94CC180C94B57D0C94CC180C94CC1862
:100040000C94CC180C9432780C941A750C94CC182F
:100050000C9437700C9401700C94CC180C94CC1840
:100060000C94CC180C94CC180C94CC180C94CC1880
:100070000C94CC180C94CC180C94CC180C94CC1870
:100080000C94E05A0C94CC180C94CC184E414E4968
:100090004E495459494E46CDCCCC3D0AD7233C1746
:1000A000B7D13877CC2B329595E6241FB14F0A0093
:1000B0000020410000C84200401C4620BCBE4CCA83
:1000C0001B0E5AAEC59D7400407A10F35A00A07200
:1000D0004E18090010A5D4E80000E8764817000083
:1000E000E40B54020000CA9A3B000000E1F5050051
:1000F0000080969800000040420F000000A086019A
:10010000000000102700000000E803000000006469
:1001100000000000000A00000000000100000000D4
:10012000002C76D888DC674F0823DFC1DFAE59E1A9
:10013000B1B796E5E3E453C63AE651997696E8E618
:10014000C28426EB898C9B62ED407C6FFCEFBC9CEB
:100150009F40F2BAA56FA5F490055A2AF75C936BFD
:100160006CF9676DC11BFCE0E40D47FEF520E6B5B8
:1001700000D0ED902E0300943577050080841E0892
:100180000000204E0A000000C80C333333330F98B0
:100190006E12831141EF8D2114893BE65516CFFE77
:1001A000E6DB18D1844B381BF77C1D901DA4BBE403
:1001B00024203284725E228100C9F124ECA1E53D45
:1001C000274572726F722077726974696E67207446
:1001D0006F20454550524F4D210A000F150E121643
:1001E000170E1303021A1401000E0DFF180C040C55
:1001F0001900012121204B494C4C20636175736526
:100200006420627920746F6F206D75636820696E59
:100210006163746976652074696D65202D2063754E
:100220007272656E7420636F6D6D616E643A20004A
:1002300053544F505045442E20005072696E7465DF
:10024000722073746F707065642064756520746FBC
:10025000206572726F72732E20466978207468650B
:10026000206572726F7220616E6420757365204D17
:1002700039393920746F20726573746172742E205D
:100280002854656D7065726174757265206973209C
:1002900072657365742E20536574206974206166DD
:1002A0007465722072657374617274696E67290A6D
:1002B000004E6F20436865636B73756D20776974BA
:1002C00068206C696E65206E756D6265722C204CBD
:1002D000617374204C696E653A2000636865636BD6
:1002E00073756D206D69736D617463682C204C614A
:1002F0007374204C696E653A20004C696E65204E1F
:10030000756D626572206973206E6F74204C617325
:1003100074204C696E65204E756D6265722B312CB0
:10032000204C617374204C696E653A20004D313168
:100330003000627573793A20706175736564206668
:100340006F7220696E7075740A00627573793A2055
:1003500070617573656420666F7220757365720ACB
:1003600000627573793A2070726F63657373696E9A
:10037000670A00506C65617365205265736574008F
:100380005052494E5445522048414C544544002552
:10039000533A202553004B494C4C45442E200050E5
:1003A00072696E7465722068616C7465642E206B6E
:1003B000696C6C28292063616C6C6564210A0053A8
:1003C000544F505045442E20005072696E7465722F
:1003D0002073746F707065642064756520746F207D
:1003E0006572726F72732E2046697820746865207A
:1003F0006572726F7220616E6420757365204D396D
:10040000393920746F20726573746172742E2028DC
:1004100054656D70657261747572652069732072C0
:10042000657365742E205365742069742061667449
:1004300065722072657374617274696E67290A004F
:100440006563686F3A004572726F723A0042696C78
:10045000696E656172204C6576656C696E672047D0
:100460007269643A0A005375626469766964656406
:100470002077697468204341544D554C4C20524FAD
:100480004D204C6576656C696E6720477269643AE9
:100490000A0021212053544F502063616C6C656425
:1004A0002062656361757365206F6620424C546FEE
:1004B000756368206572726F72202D207265737487
:1004C0006172742077697468204D3939390A0021C6
:1004D000212053544F502063616C6C656420626529
:1004E0006361757365206F6620424C546F75636855
:1004F000206572726F72202D207265737461727440
:100500002077697468204D3939390A004F46460A08
:10051000004661646520486569676874200042652B
:1005200064204C6576656C696E6720004661696C75
:10053000656420746F20656E61626C65204265643D
:10054000204C6576656C696E670A00496E76616C51
:100550006964206D6573682E0A0050726F62696E5F
:100560006720506F696E740025532025692F256917
:10057000002E0A002F0050726F62696E67206D6551
:10058000736820706F696E7420002028445259529D
:10059000554E2900473239204175746F20426564F9
:1005A000204C6576656C696E67003F20284C2C52A4
:1005B0002C462C4229206F7574206F6620626F755F
:1005C0006E64732E0A003F2856296572626F736548
:1005D000206C6576656C20696D706C6175736962FD
:1005E0006C652028302D34292E0A00426164205A7F
:1005F0002076616C75650A004E6F2062696C696EC9
:1006000065617220677269640A00496E76616C697F
:10061000642050696E204D6F64650A0020496E7633
:10062000616C69642065787472756465722000433A
:1006300061703A00526573656E643A200023646508
:1006400066696E652044454641554C545F004B64D5
:1006500020004B6920004B70200050494420417518
:10066000746F74756E652066696E69736865642160
:100670002050757420746865206C617374204B7011
:100680002C204B6920616E64204B6420636F6E7375
:1006900074616E74732066726F6D2062656C6F7723
:1006A00020696E746F20436F6E666967757261743E
:1006B000696F6E2E680A00504944204175746F744A
:1006C000756E65206661696C6564212074696D656D
:1006D0006F75740A00504944204175746F74756ECB
:1006E00065206661696C6564212054656D70657272
:1006F000617475726520746F6F20686967680A009D
:10070000204B643A2000204B693A2000204B703A7D
:1007100020000A20436C61737369632050494420B0
:100720000A002054753A2000204B753A2000206DB5
:1007300061783A2000206D696E3A200020643A20EA
:100740000020626961733A20005049442041757469
:100750006F74756E652073746172740A0050494439
:10076000204175746F74756E65206661696C65648F
:10077000212054656D706572617475726520746FA7
:100780006F20686967680A00504944204175746F9A
:1007900074756E65206661696C65642120426164D0
:1007A000206578747275646572206E756D6265720D
:1007B0000A004572723A207574663820666F6E744E
:1007C000206E6F7420696E697469616C697A656402
:1007D0002E004572723A207574663820666F6E740A
:1007E000206E6F7420696E697469616C697A6564E2
:1007F0002E004572723A207574663820666F6E74EA
:10080000206E6F7420696E697469616C697A6564C1
:100810002E0050726F6265205A204F6666736574B1
:100820000046696C2E204469612E004520696E20C7
:100830006D6DC2B3004D33303320553120452569ED
:100840002053256900504944204175746F74756EBA
:1008500065202A005049442D44202A005049442D47
:1008600049202A005049442D50202A0020082046C3
:10087000616374002008204D6178002008204D69D4
:100880006E004F6666004F6E004175746F74656D43
:1008900070004573746570732F6D6D005A737465C5
:1008A00070732F6D6D005973746570732F6D6D00CB
:1008B0005873746570732F6D6D00416476616E635B
:1008C00065642053657474696E67730046696C6172
:1008D0006D656E740054656D7065726174757265D6
:1008E0000053746570732F6D6D00436F6E6669679A
:1008F00075726174696F6E00436D643A2053572DB1
:100900004D6F646500436D643A2053746F77004304
:100910006D643A204465706C6F7900436D643A20D1
:1009200053656C662D5465737400436D643A2052B0
:100930006573657400436F6E66696775726174698B
:100940006F6E00526573746F7265204465666175E1
:100950006C7473004C6F61642053657474696E67C6
:10096000730053746F72652053657474696E677396
:1009700000424C546F7563680050726F6265205A74
:10098000204F666673657400416476616E636564CA
:100990002053657474696E6773004D61696E003130
:1009A0003235003A200035003A20004245443A45AD
:1009B00050434F53203130304B0052756E61776198
:1009C000792057617463683A204F4E004D6178205A
:1009D00054656D7000323735003A20004D696E2045
:1009E00054656D700035003A200045313A203125BC
:1009F000206265746120333935300050535500470B
:100A0000656E65726963003A200050726F746F639F
:100A10006F6C00312E30003A200042617564003264
:100A20003530303030003A20004D656C7A6920282E
:100A3000437265616C6974792900457874727564D4
:100A40006572730031003A2000687474703A2F2F79
:100A50006D61726C696E66772E6F726700456E64A9
:100A6000657220332050726F00323032302D3035B5
:100A70002D3234006275676669782D322E302E78FB
:100A8000004D61726C696E00546865726D697374B3
:100A90006F727300426F61726420496E666F00501E
:100AA00072696E74657220496E666F004D61696E81
:100AB0000041626F7574205072696E7465720043F4
:100AC0006F6E66696775726174696F6E0054656DEB
:100AD0007065726174757265004D6F74696F6E0038
:100AE00054756E6500496E666F2053637265656E5E
:100AF000004D6F74696F6E004D3834004469736146
:100B0000626C65205374657070657273004732388B
:100B1000004175746F20486F6D65004D61696E000E
:100B20005072656865617420504C4120456E6400C8
:100B30005072656865617420504C412042656400C4
:100B400050726568656174204142532042656400BB
:100B5000507265686561742041425320456E64009F
:100B600054656D706572617475726500436F6F6C6A
:100B7000646F776E005072656865617420414253FE
:100B8000005072656865617420504C410046616E8A
:100B900020537065656400426564004E6F7A7A6C1C
:100BA00065004D61696E0050726F6265205A204F7A
:100BB000666673657400466C6F770046616E2053FD
:100BC0007065656400426564004E6F7A7A6C6500FA
:100BD0005370656564004D61696E002020202020FF
:100BE00020200020202020001FE0201020102010B6
:100BF0001020102020102010303008400480030006
:100C00001FE03FF03FF03FF01FE01FE03FF03FF0FC
:100C10003FF00FC0078003003FFFF038007030FC4A
:100C20003020FC102078102030102C00D02E31D035
:100C30002F7BD02F7BD02E31D02C00D02030102015
:100C4000781020FC1030FC303800703FFFF03FFF80
:100C5000F03800703186302387102787902F87D097
:100C60002F03D02030102078102078102030102F43
:100C700003D02F87D0278790238710318630380004
:100C8000703FFFF01FFFF81FFFF80410400208201C
:100C90000208200410400820801041001041000884
:100CA00020800410400000001FFFF81FFFF8FA2FFB
:100CB0003EF8788328A08808F2A8BCF8388268A09B
:100CC0009008FA2F3E887800000000000000000025
:100CD00000003EFBE00000228A2000003EFA2000D7
:100CE000002092200000208BE000454550524F4DDF
:100CF0002056657273696F6E204572726F7200457F
:100D00004550524F4D20496E646578204572726F90
:100D10007200454550524F4D204352432045727258
:100D20006F72003F0049676E6F72650052657365B0
:100D30007400496E697469616C697A652045455033
:100D4000524F4D0000006B4300006B4300007A439C
:100D5000000000000000000000000000000C0F0078
:100D6000FE07022603BC017FFE08FE08FE050808F8
:100D700006000040F0C8888898781005080806002A
:100D800000C0F88888888888F805050506000120D5
:100D900030F830200508080600002070F8202020D8
:100DA00020E00509090600FF2070A8A8B88888700F
:100DB00020050606060001E08CEA8C8A0A0509096E
:100DC0000600FFF8A88888888888A8F8050A0A0617
:100DD00000FE205050505088A8A8887003030306D6
:100DE000000340A040FFFFFFFFFFFFFFFFFFFFFFEB
:100DF000FFFFFFFFFFFFFFFFFFFFFF0000000605F3
:100E0000FF010707060200808080808000800303C6
:100E100003060105A0A0A005060606000050F85034
:100E200050F8500509090600FF2070A8A07028A8F6
:100E30007020050707060000C8C8102040989805D4
:100E4000070706000040A0A040A890680103030621
:100E500002058080800309090601FF204040808050
:100E6000804040200309090601FF804040202020E7
:100E700040408005070706000020A8702070A820C9
:100E80000505050600012020F820200203030601C5
:100E9000FFC04080050101060003F80202020601BE
:100EA00000C0C00507070600000810102040408061
:100EB000050707060000708898A8C8887003070710
:100EC00006010040C040404040E005070706000022
:100ED000708808102040F8050707060000F8081081
:100EE0003008887005070706000010305090F81091
:100EF00010050707060000F880F00808887005074D
:100F000007060000304080F088887005070706005B
:100F100000F8081010202020050707060000708840
:100F20008870888870050707060000708888780830
:100F30001060020505060100C0C000C0C002060620
:100F40000601FFC0C000C040800305050601012066
:100F500040804020050303060002F800F803050561
:100F600006010180402040800507070600007088C8
:100F700010202000200507070600007088B8A8B8D8
:100F80008070050707060000708888F88888880543
:100F90000707060000F04848704848F005070706B4
:100FA000000070888080808870050707060000F0C8
:100FB0004848484848F0050707060000F88080F0D8
:100FC0008080F8050707060000F88080F0808080A8
:100FD000050707060000708880809888700507075D
:100FE000060000888888F8888888030707060100BB
:100FF000E04040404040E005070706000038101080
:10100000101090600507070600008890A0C0A0900F
:1010100088050707060000808080808080F805072B
:101020000706000088D8A888888888050707060072
:10103000008888C8A8988888050707060000708877
:101040008888888870050707060000F08888F08087
:10105000808005070706000070888888A8906805CA
:101060000707060000F08888F0A0908805070706AB
:10107000000070888070088870050707060000F877
:101080002020202020200507070600008888888867
:1010900088887005070706000088888888505020D7
:1010A00005070706000088888888A8A85005070754
:1010B0000600008888502050888805070706000031
:1010C00088885020202020050707060000F8081017
:1010D000204080F80309090601FFE08080808080BD
:1010E0008080E005070706000080404020101008BF
:1010F0000309090601FFE020202020202020E00530
:1011000003030600052050880501010600FEF803D0
:101110000303060105804020050505060000700850
:101120007888780507070600008080F0888888F0B6
:101130000505050600007080808870050707060019
:1011400000080878888888780505050600007088FA
:10115000F08070050707060000304840E04040403E
:101160000507070600FE708888887808700507075D
:101170000600008080F08888888803070706010041
:101180004000C0404040E00409090601FE10003064
:1011900010101010906005070706000080808890EE
:1011A000E09088030707060100C04040404040E04F
:1011B000050505060000D0A8A8A8A8050505060095
:1011C00000B0C888888805050506000070888888F2
:1011D000700507070600FEF0888888F08080050704
:1011E000070600FE78888888780808050505060047
:1011F00000B0C88080800505050600007880700872
:10120000F00507070600002020F82020201805051B
:10121000050600008888889868050505060000888E
:10122000888850200505050600008888A8A8500574
:10123000050506000088502050880507070600FEB7
:1012400088888850204080050505060000F8102099
:1012500040F80309090601FF20404040804040401B
:10126000200109090602FF808080808080808080C4
:101270000309090601FF80404040204040408005AE
:10128000030306000248A890FF53657474696E67F3
:10129000732053746F72656400290A0020627974A8
:1012A00065733B20637263200053657474696E67D5
:1012B000732053746F726564202800454550524F67
:1012C0004D206461746173697A65206572726F7212
:1012D0002E0A00290A002062797465733B2063722C
:1012E0006320002073746F72656420736574746981
:1012F0006E67732072657472696576656420280074
:10130000202863616C63756C6174656429210A002F
:1013100020213D2000454550524F4D20435243204F
:101320006D69736D61746368202D202873746F720A
:1013300065642920002053697A653A2000496E646B
:1013400065783A2000204D61726C696E3D563739E0
:10135000290A00454550524F4D2076657273696FDA
:101360006E206D69736D6174636820284545505225
:101370004F4D3D0048617264636F6465642044654D
:101380006661756C742053657474696E6773204C64
:101390006F616465640A000000FA430000FA4300CC
:1013A00000A040000034420000A0420000A0420023
:1013B00000C84300000943F4010000F40100006488
:1013C000000000881300003B20003A0A0020204D56
:1013D0003835312058005A2D50726F6265204F66A3
:1013E000667365740020440020490020204D33308E
:1013F000312050005049442073657474696E6773DE
:101400003A0020460020420020480020204D313480
:10141000352053004D6174657269616C20686561A7
:1014200074757020706172616D65746572733A00D5
:10143000204A002020473239205720490020204DE3
:101440003432302053004175746F20426564204C63
:101450006576656C696E673A0020204D3230362023
:101460005800486F6D65206F66667365743A00209A
:101470004A0020530020204D323035204200416484
:1014800076616E6365643A20423C6D696E5F736598
:10149000676D656E745F74696D655F75733E20532B
:1014A0003C6D696E5F66656564726174653E20546B
:1014B0003C6D696E5F74726176656C5F66656564CC
:1014C000726174653E204A3C6A756E635F6465763E
:1014D0003E0020520020204D323034205000416325
:1014E00063656C65726174696F6E2028756E6974CE
:1014F000732F7332293A20503C7072696E745F61A9
:101500006363656C3E20523C726574726163745F04
:10151000616363656C3E20543C74726176656C5FF8
:10152000616363656C3E0020204D323031205800ED
:101530004D6178696D756D20416363656C6572619D
:1015400074696F6E2028756E6974732F7332293A2F
:101550000020204D3230332058004D6178696D7580
:101560006D206665656472617465732028756E69A7
:1015700074732F73293A0053746570732070657209
:1015800020756E69743A0020204D3230302044308E
:101590000A0020204D32303020440020446973611D
:1015A000626C65640A0046696C616D656E742073D7
:1015B000657474696E67733A0020204D31343920A8
:1015C00043203B20556E69747320696E2043656C1F
:1015D000736975730A0020286D6D29002020473239
:1015E00031202020203B20556E69747320696E20C5
:1015F0006D6D00486F6D696E67204661696C65644A
:10160000006F70656E00545249474745524544008B
:101610003A20007A5F6D696E00795F6D696E0078BF
:101620005F6D696E005265706F7274696E672065D8
:101630006E6473746F70207374617475730A002024
:10164000746F6F206C6F6E67206578747275736944
:101650006F6E2070726576656E7465640A00206333
:101660006F6C6420657874727573696F6E20707228
:101670006576656E7465640A005761726E696E679F
:101680003A20486F6D696E672042756D702044691D
:101690007669736F72203C20310A00020204000058
:1016A000A0400000A0400000004000000001000039
:1016B0000001000080005555550000004000333304
:1016C0003300AAAA2A004992240000002000C77112
:1016D0001C0099991900D1451700555515003BB1CB
:1016E00013002449120011111100000010000F0F07
:1016F0000F00E3380E0043790D00CCCC0C00C33052
:101700000C00E8A20B0064210B00AAAA0A00703D9D
:101710000A009DD80900427B090092240900DCD30D
:101720000800888808001042080000000800F0C186
:1017300007008787070075500700711C07003EEB04
:101740000600A1BC06006990060066660600703EB1
:1017500006006118060017F4050074D105005BB09F
:101760000500B290050062720500555505007839F4
:101770000500B81E0500050505004EEC040087D4E1
:101780000400A1BD040090A7040049920400C17D9B
:101790000400EE690400C7560400444404005C32AF
:1017A00004000821040041100400000004003FF080
:1017B0000300F8E0030026D20300C3C30300CCB546
:1017C00003003AA803000A9B0300388E0300C0817F
:1017D00003009F750300D0690300505E03001D5392
:1017E000030034480300913D0300333303001629FE
:1017F0000300381F030097150300300C0300030398
:1018000003000BFA020049F10200BAE802005CE0B2
:1018100002002DD802002DD0020059C80200B0C02D
:10182000020031B90200DAB10200AAAA0200A0A3A4
:101830000200BC9C0200FA9502005C8F0200DF8867
:10184000020082820200457C020027760200277097
:101850000200436A02007C640200D05E02003F592D
:101860000200C8530200FFFDFCFAF8F6F4F2F0EEB5
:10187000ECEAE9E7E5E3E1E0DEDCDAD9D7D5D4D27A
:10188000D0CFCDCBCAC8C7C5C3C2C0BFBDBCBAB913
:10189000B7B6B4B3B2B0AFADACAAA9A8A6A5A4A27E
:1018A000A1A09E9D9C9A99989795949392908F8EC3
:1018B0008D8B8A8988878684838281807F7E7D7BE9
:1018C0007A797877767574737271706F6E6D6C6BF0
:1018D0006A696867666564636261605F5E5D5C5BE0
:1018E0005A5958585756555453525150504F4E4DBF
:1018F0004C4B4A4A49484746464544434242414088
:101900003F3E3E3D3C3B3B3A39383837363535343F
:101910003332323130302F2E2E2D2C2B2B2A2929E9
:1019200028272726252524232322212120201F1E86
:101930001E1D1C1C1B1B1A19191818171616151515
:1019400014131312121111100F0F0E0E0D0D0C0C9B
:101950000B0A0A0909080807070606050504040317
:1019600003020201000024F4D43050C38E20C2A22E
:101970004017828B7011127A910D816CD90AA8617F
:10198000E108C7586607615143061E4B5D05C14516
:10199000A7041A411104093D9803713931034036F7
:1019A000DB0265339102D4305402802E1D02632C79
:1019B000EE01752AC501B028A001102781018F25ED
:1019C00064012B244B01E0223401AC211F018D2046
:1019D0000D01801FFC00841EED00971DDF00B81C68
:1019E000D200E61BC600201BBC00641AB200B2196C
:1019F000A8000A19A0006A189900D1179100401791
:101A00008B00B516840031167E00B31579003A15A7
:101A10007300C7146F0058146A00EE136600881331
:101A2000630025135E00C7125B006C12570015128D
:101A30005400C111510070114F0021114B00D610FC
:101A400049008D1047004610440002104200C00FAC
:101A50004000800F3E00420F3C00060F3B00CB0EC3
:101A60003800930E37005C0E3500270E3400F30D5E
:101A70003200C10D3100900D3000600D2E00320D8E
:101A80002D00050D2C00D90C2B00AE0C2900850C67
:101A900029005C0C2700350C27000E0C2600E80BF3
:101AA0002400C40B2400A00B23007D0B23005A0B41
:101AB0002100390B2100180B2000F80A1F00D90A59
:101AC0001E00BB0A1E009D0A1D00800A1D00630A3D
:101AD0001C00470A1B002C0A1B00110A1A00F709F8
:101AE0001A00DD091900C4091900AB09190092098F
:101AF00017007B091800630917004C091600360906
:101B00001600200916000A091500F5081500E0085E
:101B10001400CC081400B8081400A408140090089D
:101B200013007D0812006B081300580812004608C5
:101B300012003408110023081100120811000108D6
:101B40001100F0071000E0071000D0071000C007D8
:101B50001000B0070F00A107100091070E008307C7
:101B60000F0074070F0065070E0057070E004907A6
:101B70000E003B070D002E070E0020070D00130777
:101B80000D0006070D00F9060C00ED060D00E0063D
:101B90000C00D4060C00C8060C00BC060C00B006F5
:101BA0000C00A4060B0099060C008D060B008206A3
:101BB0000B0077060B006C060B0061060A00570647
:101BC0000B004C060A0042060A0038060A002E06E0
:101BD0000A0024060A001A060A0010060900070671
:101BE0000A00FD050900F4050900EB050900E205FE
:101BF0000900D9050900D0050900C7050900BE057F
:101C00000900B5050800AD050800A50509009C05FB
:101C10000800940508008C050800840508007C0570
:101C20000800740508006C050700650508005D05DF
:101C30000700560508004E05070047050700400548
:101C4000080038050700310507002A0507002305AD
:101C500007001C050600160507000F05070008050C
:101C6000060002050700FB040600F5040700EE0469
:101C70000600E8040600E2040700DB040600D504C1
:101C80000600CF040600C9040600C3040600BD0414
:101C90000600B7040600B1040500AC040600A60463
:101CA0000600A00405009B040600950405009004AE
:101CB00006008A04050085040500800406007A04F5
:101CC000050075040500700405006B04050066043A
:101CD0000500610405005C0405005704050052047A
:101CE00005004D04050048040500430405003E04BA
:101CF00004003A04050035040500300404002C04F7
:101D0000050027040400230405001E0404001A042F
:101D1000040016040500110404000D040400090465
:101D200005000404040000040400FC030400F8039C
:101D30000400F4030400F0030400EC030400E803CF
:101D40000400E4030400E0030400DC030400D803FF
:101D50000400D4030400D0030400CC030400C8032F
:101D60000300C503030024F404D9201BC40C5C0E3B
:101D70009804C4095F0265077101F405F900FB04CA
:101D8000B30048048700C1036900580355000303EA
:101D90004500BE023A008402310053022A002902A3
:101DA000250004022000E4011C00C8011900AF0155
:101DB00017009801140084011300710110006101E3
:101DC000100051010E0043010D0036010B002B01E4
:101DD0000B0020010B00150109000C010900030193
:101DE0000800FB000800F3000800EB000700E40017
:101DF0000600DE000600D8000600D2000600CC0077
:101E00000500C7000500C2000500BD000400B900C0
:101E10000400B5000400B1000400AD000400A900F6
:101E20000400A5000300A20003009F0004009B0023
:101E30000300980003009500020093000300900047
:101E400003008D0002008B00030088000200860062
:101E5000020084000300810002007F0002007D0078
:101E600002007B000200790002007700010076008A
:101E700002007400020072000100710002006F0095
:101E800002006D0001006C0002006A0001006900A0
:101E900002006700010066000100650001006400A7
:101EA00002006200010061000100600001005F00AB
:101EB00002005D0001005C0001005B0001005A00AF
:101EC00001005900010058000100570001005600B0
:101ED00001005500010054000100530000005300B0
:101EE00001005200010051000100500001004F00AC
:101EF00001004E0000004E0001004D0001004C00AA
:101F000001004B0000004B0001004A0001004900A5
:101F100001004800000048000100470001004600A1
:101F2000000046000100450000004500010044009B
:101F30000100430000004300010042000000420095
:101F400001004100000041000100400001003F008D
:101F500000003F0001003E0000003E0001003D0087
:101F600000003D0001003C0000003C0000003C007F
:101F700001003B0000003B0001003A0000003A0075
:101F8000010039000000390001003800000038006D
:101F90000000380001003700000037000100360063
:101FA000000036000000360001003500000035005A
:101FB000000035000100340000003400000034004F
:101FC0000100330000003300000033000100320044
:101FD000000032000000320001003100000031003A
:101FE000000031000100300000003000000030002F
:101FF00001002F0000002F0000002F0000002F0024
:1020000001002E0000002E0000002E0001002D0017
:1020100000002D0000002D0000002D0001002C000C
:1020200000002C0000002C0000002C0001002B0000
:1020300000002B0000002B0000002B0001002A00F4
:1020400000002A0000002A0000002A0001002900E8
:1020500000002900000029000000290000002900DC
:1020600001002800000028000000280000002800CF
:1020700000002800010027000000270000002700C2
:1020800000002700000027000100260000002600B5
:1020900000002600000026000000260001002500A8
:1020A000000025000000250000002500000025009C
:1020B000000025000100240000002400000024008E
:1020C0000000240000002400010023000000230081
:1020D0000000230000002300000023000000230074
:1020E0000000230001002200000022000000220066
:1020F0000000220000002200000022000100210058
:10210000000021000000210000002100000021004B
:10211000000021000000210001002000000020003C
:10212000000020000000200000002000000020002F
:10213000000020000000200001001F0000001F0020
:1021400000001F0000001F0000001F0000001F0013
:1021500000001F0001001E0000001E0000001E0005
:1021600000001E00000039300000332500008719F0
:102170000000B00F0000DB080000BD040000740286
:1021800000003F01000020436F756E7420583A0034
:1021900042656400453100626564002C20737973E8
:1021A00074656D2073746F7070656421204865617B
:1021B0007465725F49443A200048656174696E67CE
:1021C000204661696C65640048656174696E6720CA
:1021D0006661696C65640070012C0190012701B093
:1021E000012201C0011D01F001180110021301308C
:1021F000020E016002090190020401C002FF00000A
:1022000003FA004003F5008003F000D003EB002048
:1022100004E6007004E100E004DC004005D700C0E3
:1022200005D2004006CD00D006C8008007C30030AC
:1022300008BE00F008B900C009B400B00AAF00B091
:102240000BAA00D00CA500000EA000500F9B00C0F0
:102250001096005012910000148C00C0158700B039
:10226000178200B0197D00D01B7800001E7300405B
:10227000206E0090226900F024640040275F0090E7
:10228000295A00E02B5500102E500020304B001032
:10229000324600E033410090353C00103737007083
:1022A000383200A0392D00B03A2800A03B2300604E
:1022B0003C1E00103D1900903D1400103E0F0070B0
:1022C0003E0A00C03E0500003F0000403FFBFF808B
:1022D0003FF6FFC03FF1FF544845524D414C20525C
:1022E000554E4157415900546865726D616C2052DA
:1022F000756E61776179004572723A204D4158548C
:10230000454D50004D415854454D502074726967F9
:102310006765726564004572723A204D494E5445B6
:102320004D50004D494E54454D50207472696767B9
:102330006572656400202F002042403A0020403A38
:102340000000002100240027002A000000220025B0
:102350000028002B00000020002300260029000296
:10236000020202020202020404040404040404033C
:10237000030303030303030101010101010101013F
:10238000020408102040800102040810204080014F
:102390000204081020408080402010080402010040
:1023A000001FFE0000000000000000000000000010
:1023B00000F807C00000000000000000000000005E
:1023C000038000700000000000000000000000001A
:1023D0000E00001C000000000000000000000000D3
:1023E00018000006000000000000000000000000CF
:1023F00030000003000000000000000000000000AA
:1024000060000001800000000000000000000000EB
:10241000C0000000C000000000000000000000013B
:1024200080000000600000000000000000000001CB
:102430000000000020000000000000000000000379
:10244000000000003000000000000000000000025A
:102450000000000010000000000000000000000666
:102460000000000018000000000000000000000450
:102470000000000008000000000000000000000C48
:10248000000000000C000000000000000000000838
:102490000000000004000000000000000000000830
:1024A0000000000004000000000000000000001810
:1024B000000000000601FFFC3FC7FC79E79FF01811
:1024C000000000000601FFFE7FE7FE79E79FF8109D
:1024D000000000000201E79E79E79E79E79E7810F0
:1024E000000000000201E79E79E79E79E79E7810E0
:1024F000000000000201E79E7FE7FC79E79E781864
:10250000000000000201E79E7FE7FC79E79E781C4F
:10251000000000000201E79E79E79E79E79E781CA3
:102520003FF800000601E79E79E79E79E79E781F55
:10253000FFFFC0000601E79E79E79E7FE79E781FB8
:102540007FC1F8000401E79E79E79E7FC79E780C63
:102550003F801E0004000000000000000000000C8E
:102560001E000F800C000000000000000000000CA6
:102570001C0007C00C000000000000000000000468
:10258000080003F00800000393889118E380000618
:10259000000001F818000002124D9524920000027C
:1025A000000001FC30000003938A953CE3800003A7
:1025B000000000FE7000000212889524A2000001B5
:1025C000800000E7E000000212488A2493800000A7
:1025D00080000003C00000000000000000000000B8
:1025E00040000003C00000000000000000000000E8
:1025F00060000003800000000000000000000000F8
:10260000380000070000000000000000000000008B
:102610000C00000E000000000000000000000000A0
:10262000070000380000000000000000000000006B
:1026300001E000F0000000000000000000000000C9
:10264000007FFF800000000000000000000000008C
:10265000007FF80000000000000000000000000003
:1026600003DFC000000000000000000000000000C8
:102670000FCE6000000022738723110381822000A7
:1026800019E03800000022424824990042414000ED
:102690001DE03800000014738624950182408000FC
:1026A00034F03C00000014428124930202414000B7
:1026B00025DFEC00000008724E231103D1922000A8
:1026C0004D800E000000000000000000000000002F
:1026D000F99FE6000000000000000000000000007C
:1026E000ED3FFC00000000000000000000000000C2
:1026F000CF63FE0000000E2490E0183141C30001BA
:10270000FFC1870000000924909008114024800137
:102710002780038000000E249090081140C480019F
:10272000018001C00000092490900811E104800399
:102730000080FDC000000E189CE01D3849E3000237
:10274000008001E000000000000000000000000226
:1027500000FC01A0000000000000000000000002DA
:1027600000FF01A0000000000000000000000003C6
:1027700000FE8120000000000000000000000003B7
:10278000079E832000000000000000000000000100
:102790008F0787A00000000000000000000000205C
:1027A00020506C616E6E6572427566666572427924
:1027B0007465733A20002046726565204D656D6F23
:1027C00072793A2000436F6D70696C65643A204AF3
:1027D000756E20203520323032300A00204C617373
:1027E0007420557064617465643A20323032302D43
:1027F00030352D3234207C20417574686F723A2058
:10280000286D696B656B7363686F6C7A2C20456EFD
:102810006465722D332D50726F290A0062756766E8
:1028200069782D322E302E780A004D61726C696EF7
:102830000020536F6674776172652052657365740A
:102840000A00205761746368646F6720526573657E
:10285000740A002042726F776E206F757420526583
:102860007365740A002045787465726E616C20523D
:10287000657365740A00506F77657255700A00734E
:10288000746172740A00456E6473746F707300250E
:102890005320256320256320256320256300205ACB
:1028A0003A0020593A0020583A00656E6473746FFC
:1028B0007073206869743A2000434F4D4D554E495E
:1028C000434154494F4E0044525952554E004552CF
:1028D000524F525300494E464F004543484F005017
:1028E00072696E7420506175736564001000AA03EC
:1028F000F0013A019002220130031001D0030201DD
:102900007004F7001005ED00B005E5005006DD008D
:10291000F006D7009007D1003008CC00D008C700DF
:102920007009C300100ABE00B00ABB00500BB7000C
:10293000F00BB300900CB000D00DAA00100FA50052
:102940005010A00090119B00D0129600B01490007F
:1029500090168B0070188500501A8000301C7B0088
:10296000B01E750030216F00B0236900302664006E
:1029700010285F00902A5A00702C5500F02E4F004E
:1029800070314800B0324500F033410070363900F4
:10299000103737005038330090392D00D03A2700D7
:1029A000B03C1C00503D1700F03D1100903E090066
:1029B000D03FE5FF4D6F76652025736D6D00004DAE
:1029C0006F766520302E316D6D004D6F766520314C
:1029D0006D6D004D6F76652031306D6D004D6F76F9
:1029E00065204178697300486F74656E6420746F68
:1029F0006F20636F6C640045787472756465720053
:102A00004D6F7665205A004D6F76652059004D6FE9
:102A100076652058006F6B00496E76616C696420A2
:102A200065787472756465720A00290A0020746FF3
:102A300020003F5A206F7574206F662072616E67A8
:102A400065202800290A0020746F20003F59206F5C
:102A50007574206F662072616E676520282D0029CD
:102A60000A0020746F20003F58206F7574206F6635
:102A70002072616E676520282D0050726F6265209C
:102A80004F6666736574205800454550524F4D207F
:102A90004F4B0A004F666673657473204170706C0B
:102AA000696564004572723A20546F6F20666172E6
:102AB0002100546F6F206661722066726F6D207204
:102AC00065666572656E636520706F696E740A0075
:102AD0000000000000000000000000004D34323112
:102AE00020696E636F727265637420706172616DCC
:102AF000657465722075736167650A004D6573685A
:102B000020706F696E74206F7574206F662072611B
:102B10006E67650A0064697300656E0043290A00E8
:102B200061626C656420286D696E2074656D70202B
:102B300000436F6C642065787472756465732061FE
:102B40007265200020643A0020693A0020703A0043
:102B5000496E76616C69642065787472756465721B
:102B60000A0050726F6265204F6666736574205A62
:102B70000050726F6265204F6666736574205A005C
:102B80003A200020536572766F2000206F75742004
:102B90006F662072616E67650A00536572766F20FA
:102BA0000050726F7465637465642050696E0A002A
:102BB00020466C6F773A200046523A004F46460056
:102BC0004F4E0020580020204D61783A2000200010
:102BD00020204D696E3A2000536F667420656E6444
:102BE00073746F70733A20003F4A206F7574206FC2
:102BF000662072616E67652028302E303120746F38
:102C000020302E33290A00205400205200416363F3
:102C1000656C65726174696F6E3A2050004D313495
:102C20003520533C696E6465783E206F7574206F63
:102C3000662072616E67652028302D31290A002FC9
:102C40002F20004348414D4245525F54454D504569
:102C500052415455524500424142595354455050F7
:102C6000494E47004D4F54494F4E5F4D4F444553D9
:102C700000544845524D414C5F50524F54454354C7
:102C8000494F4E004C4F4E475F46494C454E414DD3
:102C900045004155544F5245504F52545F53445F85
:102CA00053544154555300534443415244005052ED
:102CB0004F4D50545F535550504F525400454D4561
:102CC0005247454E43595F5041525345520043418C
:102CD00053455F4C494748545F4252494748544E18
:102CE00045535300544F47474C455F4C4947485460
:102CF0005300534F4654574152455F504F5745522A
:102D0000004255494C445F50455243454E54004C97
:102D10004556454C494E475F44415441005A5F5027
:102D2000524F4245004155544F4C4556454C00507A
:102D300052494E545F4A4F420050524F47524553FA
:102D400053004155544F5245504F52545F54454DD6
:102D50005000564F4C554D4554524943004545503F
:102D6000524F4D0042494E4152595F46494C455FD2
:102D70005452414E534645520053455249414C5FCF
:102D8000584F4E5F584F4646004649524D574152A4
:102D9000455F4E414D453A4D61726C696E206275DA
:102DA000676669782D322E302E7820284A756E207D
:102DB000203520323032302031383A30333A343511
:102DC0002920534F555243455F434F44455F555269
:102DD0004C3A68747470733A2F2F6769746875621F
:102DE0002E636F6D2F4D61726C696E4669726D77DF
:102DF0006172652F4D61726C696E2050524F544F55
:102E0000434F4C5F56455253494F4E3A312E302076
:102E10004D414348494E455F545950453A456E64CB
:102E2000657220332050726F2045585452554445E6
:102E3000525F434F554E543A3120555549443A63F9
:102E4000656465326132662D343161322D34373438
:102E5000382D396231322D6335356336326633367B
:102E60003766660A00456E64657220332050726FC3
:102E7000204F46462E0020573A0042656420436F9B
:102E80006F6C696E672E2E2E004265642048656166
:102E900074696E672E2E2E004D3131332053004D54
:102EA0003131322053687574646F776E006F6666D7
:102EB00000DA28D528CE28C728B9284445425547E6
:102EC0003A006F6B0020573A00436F6F6C696E6772
:102ED0002E2E2E0048656174696E672E2E2E0045D9
:102EE000202553002569730025696D20256973002D
:102EF0002569682025696D2025697300256964208E
:102F00002569682025696D20256973002569792068
:102F1000256964202569682025696D20256973006D
:102F20005072696E742074696D653A20004E6F208E
:102F30004D6F76652E00436C69636B20746F205271
:102F40006573756D652E2E2E004D65736820706F4C
:102F5000696E74206F7574206F662072616E67658C
:102F60000A00205A3A200020593A20004265642085
:102F7000583A20000000A0410000A041000080401D
:102F800000006B4300006B4300007A43FFFFFF5AD1
:102F90002050726F62652050617374204265640A2C
:102FA000005A2050726F6265205061737420426530
:102FB0006400486F6D652058592066697273740A01
:102FC00000486F6D6520585920466972737400532C
:102FD0006C6565702E2E2E0050726F62696E6720D0
:102FE0004661696C65640A0050726F62696E6720A1
:102FF0004661696C656400205A3A200020593A20E5
:103000000042656420583A2000486F6D65202573A2
:103010002573257320466972737400220A00556E69
:103020006B6E6F776E20636F6D6D616E643A2022F8
:1030300000456E64657220332050726F20526561C6
:1030400064792E005072696E74696E672E2E2E00A0
:10305000204500205A00205900204D3932205800C8
:1030600020453A00205A3A0020593A00583A00DBED
:103070000FC93F2BBCDA3F7EB30240EEF027403A47
:10308000946140EE4B9B4068A5D840CC231841206A
:103090006A5641D659974148DBD541602717429877
:1030A000B75542C01A974200000000F40684BF9250
:1030B0005FA7BF5443E0BF04B11AC0002C58C0D86A
:1030C000F697C09C49D6C03A4E17C110D355C16E71
:1030D0002497C184B5D5C1041A17C228AE55C26A57
:1030E0001797C20000000020746F6F206C6F6E672E
:1030F00020657874727573696F6E2070726576657D
:103100006E7465640A0020636F6C64206578747265
:103110007573696F6E2070726576656E7465640A8A
:1031200000000000010200090A000000000403087A
:103130000700000000000000000000000000000088
:10314000000039E211241FBECFEFD0E4DEBFCDBFB7
:1031500012E0A0E0B1E0E8E8F1EE01E00BBF02C050
:1031600007900D92AE32B107D9F72DE2AEE2B2E090
:1031700001C01D92AF37B207E1F718E1C2EAD8E10A
:1031800004C02197FE010E945DF0C13AD107C9F742
:103190000E944FDD0C94C2F00C9400008F929F921D
:1031A000AF92BF92CF92DF92EF92FF92FC01C0806C
:1031B000D180E280F38020E030E048EC52E4C701A7
:1031C000B6010E94D6E74B015C0120E030E0A90186
:1031D000C701B6010E9470E720E030E040EA50E409
:1031E00087FF04C020E030E040EA50ECC501B401A4
:1031F0000E941CEE20E030E040E251E40E949FEE8D
:103200000E9411EF9B018BE237FF05C02227332775
:10321000261B370B8DE28093FC12C90168EE73E028
:103220000E9449F0CB01EAE0F0E0BF010E9449F0C2
:10323000805D8093FD12C90164E670E00E9449F050
:10324000CB01BF010E9449F0805D8093FE12C9014D
:10325000BF010E9449F0282FCB01BF010E9449F015
:10326000805D8093FF128EE280930013205D209397
:1032700001138CEF92E1FF90EF90DF90CF90BF9021
:10328000AF909F908F9008958F929F92AF92BF9230
:10329000CF92DF92EF92FF92CF93FC01C080D1805A
:1032A000E280F38020E030E04AE754E4C701B60151
:1032B0000E94D6E74B015C0120E030E040E251EC97
:1032C000C701B6010E9470E7181654F420E030E000
:1032D00048EC52E4C701B6010E949FEF87FD86C00B
:1032E00020E030E0A901C701B6010E9470E787FF26
:1032F0006EC060E070E080EA90ECA50194010E944D
:103300001CEE20E030E040E251E40E949FEE0E947B
:1033100011EF6B017C01F7FC5FC020E137E240E078
:1033200050E00E94DAEDCA01B9012AE030E040E045
:1033300050E00E94DAED605D6093FC12C701B601B7
:1033400028EE33E040E050E00E94DAED9AE0892E6A
:10335000912CA12CB12CCA01B901A50194010E94A4
:10336000DAED605D6093FD12C701B60124E630E03E
:1033700040E050E00E94DAEDCA01B901A5019401D4
:103380000E94DAED605D6093FE128EE28093FF1280
:10339000C701B601A50194010E94DAEDC62FCA014A
:1033A000B901A50194010E94DAED605D60930013FC
:1033B000C05DC09301138CEF92E1CF91FF90EF902D
:1033C000DF90CF90BF90AF909F908F90089560E076
:1033D00070E080EA90E491CFF094E094D094C094AF
:1033E000C11CD11CE11CF11C6DE2A6CF20E030E035
:1033F000A901C701B6010E9470E787FF6AC060E0BB
:1034000070E080EA90ECA50194010E941CEE20E09F
:1034100030E040E251E40E949FEE0E9411EF4B0128
:103420005C0120E030E0A901C701B6010E949FEFD6
:1034300087FD0BC020E030E040E251E4C701B60157
:103440000E9470E760E287FD13C0B7FC47C0C5016A
:10345000B40128EE33E040E050E00E94DAEDCA010A
:10346000B9012AE030E040E050E00E94DAED605D12
:103470006093FD12C501B40124E630E040E050E065
:103480000E94DAED8AE0C82ED12CE12CF12CCA0181
:10349000B901A70196010E94DAED605D6093FE120A
:1034A0008EE28093FF12C501B401A70196010E942C
:1034B000DAEDC62FCA01B901A70196010E94DAED23
:1034C000605D60930013C05DC09301138DEF92E1C6
:1034D00074CF60E070E080EA90E495CFB094A0945F
:1034E00090948094811C911CA11CB11C6DE2C0CFF2
:1034F0009C0197FF26C0EE27FF27E81BF90B2D390B
:103500008FEF38070CF05DC08DE28093FE12CF0183
:1035100064E670E00E9449F0CB012AE030E0B90196
:103520000E9449F0805D8093FF12CF01B9010E9493
:1035300049F0CB01B9010E9449F0805D80930013EE
:103540002AC0283E83E03807B4F1C90168EE73E071
:103550000E9449F0CB01EAE0F0E0BF010E9449F08F
:10356000805D8093FE12C90164E670E00E9449F01C
:10357000CB01BF010E9449F0805D8093FF12C90119
:10358000BF010E9449F0CB01BF010E9449F0805D5C
:1035900080930013F901CF016AE070E00E9449F0C6
:1035A000805D809301138EEF92E108958DE237FDE7
:1035B000C5CF80E2C3CFF90180E2243631050CF09B
:1035C000A4CF80E28093FE128093FF12EA30F105CF
:1035D0006CF38DE237FF80E28093FF12CF016AE047
:1035E00070E00E9449F0605D60930013D4CF9C01AD
:1035F00097FD2DC080E2243631055CF0C90164E6F8
:1036000070E00E9449F0CB016AE070E00E9449F04E
:10361000805D8093FF1280E22A3031055CF0EAE0A1
:10362000F0E0C901BF010E9449F0CB01BF010E9437
:1036300049F0805D80930013C9016AE070E00E9448
:1036400049F0805D809301138FEF92E108953195E9
:10365000219531098DE2DDCF24E6829FC00111243E
:1036600081589F4F6FEF70E00E9449F0262F81E351
:10367000643609F080E28093FE1290E22A3040F036
:103680003AE0822F632F0E9429F00E9429F0905D7A
:103690009093FF12822F6AE00E9429F0905D909330
:1036A000001385E2809301138EEF92E10895FC01EF
:1036B00084910895FC0180810895FC01A081B1816D
:1036C0001C92A281B3818C918F5F8C930280F381D5
:1036D000E02D90818CE0989F800D1124EEEEFBE2AE
:1036E00013AE84AF08956091390170913A01072EAD
:1036F000000C880B990B0E9477E72AE037ED43E234
:103700005CE30E94D6E72091471330914813409123
:10371000491350914A130E94D6E760936E0170934B
:103720006F0180937001909371010895809104134B
:10373000811104C08091AB0580935B140895809142
:103740000413811104C08091AB0580935B1408952C
:10375000CF93DF9300D000D0CDB7DEB784EF91E0F8
:10376000A0E0B0E089839A83AB83BC83BE016F5F26
:103770007F4F80EA0E94455A0F900F900F900F9054
:10378000DF91CF910895CF93DF9300D000D0CDB7D4
:10379000DEB784EF91E0A0E0B0E089839A83AB8349
:1037A000BC83BE016F5F7F4F8CE30E94455A0F9030
:1037B0000F900F900F90DF91CF910895CF93DF93EB
:1037C00000D000D0CDB7DEB784EF91E0A0E0B0E04C
:1037D00089839A83AB83BC83BE016F5F7F4F88E789
:1037E0000E94455A0F900F900F900F90DF91CF914C
:1037F0000895CF93DF9300D000D0CDB7DEB78EEE23
:1038000092E0A0E0B0E089839A83AB83BC83BE01E1
:103810006F5F7F4F8AE00E94455A0F900F900F9084
:103820000F90DF91CF910895CF93DF9300D000D018
:10383000CDB7DEB78EEE92E0A0E0B0E089839A8348
:10384000AB83BC83BE016F5F7F4F8AE50E94455A00
:103850000F900F900F900F90DF91CF9108952CEA69
:1038600035EC47E25EE360916B0570916C058091E9
:103870006D0590916E050E949FEE6093AB2B709347
:10388000AC2B8093AD2B9093AE2B08952CEA35ECA6
:1038900047E25EE360916F0570917005809171055C
:1038A000909172050E94D6E76093A72B7093A82B86
:1038B0008093A92B9093AA2B08958091DA2B909155
:1038C000DB2B891B8F7339F481E0909125149130A3
:1038D00019F080E0089581E00895CF93DF93EC0123
:1038E000CB01BA010E9477E720E030E048EC52E4D7
:1038F0000E949FEE20E030E0A9010E941CEE688348
:1039000079838A839B83DF91CF910895CF93DF934F
:10391000EC01CB01BA010E9477E720E030E048ECEF
:1039200052E40E949FEE20E030E0A9010E941CEECC
:10393000688379838A839B83DF91CF910895CF93A6
:10394000DF93EC01CB01BA010E9477E720E030E081
:1039500040E251E40E949FEE20E030E0A9010E9485
:103960001CEE688379838A839B83DF91CF910895CE
:10397000CF93DF93EC01CB01BA010E9477E720E0FF
:1039800030E04AE754E40E949FEE20E030E0A901D5
:103990000E941CEE688379838A839B83DF91CF9199
:1039A0000895CF92DF92EF92FF92CF93DF9300D0F2
:1039B00000D0CDB7DEB70E9477E720E030E048ECDA
:1039C00052E40E949FEE20E030E0A9010E941CEE2C
:1039D0006B017C0120E030E0A9010E9470E727E143
:1039E00037EB41E558E387FF04C027E137EB41E5BA
:1039F00058EBC701B6010E941CEE69837A838B8362
:103A00009C83CE0101960E9444190F900F900F9055
:103A10000F90DF91CF91FF90EF90DF90CF900895BE
:103A2000CF93DF93EC01CB01BA010E9477E720E04E
:103A300030E0A9010E941CEE688379838A839B830E
:103A4000DF91CF9108950E9477E720E030E0A9014F
:103A50000E941CEE0E9411EFCB010C94F71ACF9339
:103A6000DF93EC01CB01BA010E9477E720E030E060
:103A7000A9010E941CEE0E9411EF79836883DF91F7
:103A8000CF9108950E9477E729EC38EC48EC5EE38B
:103A90000E949FEE20E030E040E05FE30E941CEED9
:103AA0000E9418EF862F0C942C1BCF93DF93EC0110
:103AB000CB01BA010E9477E729EC38EC48EC5EE3D1
:103AC0000E949FEE20E030E040E05FE30E941CEEA9
:103AD0000E9418EF6883DF91CF9108958F929F9293
:103AE000AF92BF92CF92DF92EF92FF92CF936B0192
:103AF0007C0120E030E0A9010E9470E787FD99C0B9
:103B000067E177EB81E598E3A70196010E941CEE3F
:103B10006B017C0120E030E04AE754E40E94D6E7E4
:103B20004B015C0120E030E0A901C701B6010E9411
:103B300070E720E030E040EA50E487FF04C020E076
:103B400030E040EA50ECC501B4010E941CEE20E0D8
:103B500030E040E251E40E949FEE0E9411EF6B01C1
:103B60007C018BE2F7FE09C0F094E094D094C094FD
:103B7000C11CD11CE11CF11C8DE28093FB12C7011A
:103B8000B60120E137E240E050E00E94DAED8AE041
:103B9000882E912CA12CB12CCA01B901A501940148
:103BA0000E94DAED605D6093FC12C701B60128EE59
:103BB00033E040E050E00E94DAEDCA01B901A5010E
:103BC00094010E94DAED605D6093FD12C701B601B9
:103BD00024E630E040E050E00E94DAEDCA01B9018D
:103BE000A50194010E94DAED605D6093FE128EE201
:103BF0008093FF12C701B601A50194010E94DAED7E
:103C0000C62FCA01B901A50194010E94DAED605DD9
:103C100060930013C05DC09301138BEF92E1CF91CD
:103C2000FF90EF90DF90CF90BF90AF909F908F90DC
:103C3000089567E177EB81E598EB66CF0E9477E71F
:103C400020E030E048EC52E40E949FEE20E030E0BB
:103C5000A9010E941CEE0C946E1D8F929F92AF9250
:103C6000BF92CF92DF92EF92FF92CF936B017C01D4
:103C700020E030E0A9010E9470E787FDA4C067E161
:103C800077EB81E598E3A70196010E941CEE6B019A
:103C90007C0120E030E0A9010E9470E787FF98C016
:103CA000C701B601905820E030E048EC52E40E9491
:103CB000D6E720E030E040EA50E40E941CEE20E02D
:103CC00030E040E251E40E949FEE0E9411EF6B0150
:103CD0007C0180E28093FB1260E280E1C81687E2FB
:103CE000D806E104F1048CF0C701B60120E137E207
:103CF00040E050E00E94DAEDCA01B9012AE030E06C
:103D000040E050E00E94DAED605D6093FC1260E2FA
:103D100088EEC81683E0D806E104F1048CF0C701F0
:103D2000B60128EE33E040E050E00E94DAEDCA012F
:103D3000B9012AE030E040E050E00E94DAED605D39
:103D40006093FD1260E284E6C816D104E104F10438
:103D50008CF0C701B60124E630E040E050E00E945C
:103D6000DAEDCA01B9012AE030E040E050E00E94FB
:103D7000DAED605D6093FE128AE0882E912CA12C12
:103D8000B12CC701B601A50194010E94DAEDC62F3E
:103D9000CA01B901A50194010E94DAED605D60934A
:103DA000FF128EE280930013C05DC09301138BEF6E
:103DB00092E1CF91FF90EF90DF90CF90BF90AF90C6
:103DC0009F908F90089567E177EB81E598EB5BCF4B
:103DD00020E030E048EC52E4C701B60168CF0E9411
:103DE00077E720E030E040E251E40E949FEE20E0DF
:103DF00030E0A9010E941CEE0C942D1ECF92DF92A0
:103E0000EF92FF926B017C0120E030E0A9010E945B
:103E100070E787FD26C067E177EB81E598E3A701AE
:103E200096010E941CEE6B017C0120E030E0A901AC
:103E30000E9470E720E030E040E05FE387FF04C0CD
:103E400020E030E040E05FEBC701B6010E941CEECD
:103E50000E9411EFCB01FF90EF90DF90CF900C9478
:103E6000F71A67E177EB81E598EBD9CF0E9477E706
:103E700020E030E0A9010E941CEE0C94FE1E119877
:103E80000000000087FD52C0419800000000119A18
:103E90000000000011980000000086FD53C041980A
:103EA00000000000119A00000000119800000000BE
:103EB00085FD46C0419800000000119A00000000F6
:103EC00011980000000084FD39C0419800000000F6
:103ED000119A0000000011980000000083FD2CC022
:103EE000419800000000119A0000000011980000A5
:103EF000000082FD1FC0419800000000119A0000E0
:103F0000000011980000000081FD12C041980000DF
:103F10000000119A00000000119800000000419874
:103F200000000000119A000000000895419AADCFF2
:103F3000419AEDCF419AE0CF419AD3CF419AC6CF73
:103F4000419AB9CF419AACCF089590E080E00895AE
:103F50008F929F92AF92BF92CF92DF92EF92FF9299
:103F60001F93CF93DF93C82FD62F882321F112E020
:103F700083E0C53011F1662309F46FC012E0E3E07D
:103F8000653009F46CC08C2F8150990BFC01EE0F49
:103F9000FF1FEE0FFF1F262F2150330BE20FF31FE1
:103FA000EE0FFF1FEE0FFF1FE95FFC4E6081718176
:103FB0008281938130C011E080E09FEF9D0F9430AB
:103FC000B0F52D2F2150330BE90134E0839FD00150
:103FD0001124AC0FBD1FAA0FBB1FAA0FBB1FA95FE7
:103FE000BC4E6D917D918D919C919B01AC010E9485
:103FF0001CEE24E0129FF0011124CE0FDF1FCC0F26
:10400000DD1FCC0FDD1FC95FDC4E288139814A815D
:104010005B810E941BEEDF91CF911F91FF90EF908B
:10402000DF90CF90BF90AF909F908F9008956D2FAD
:104030008F5F0E94A81F6B017C016D2F81E0810FB3
:104040000E94A81F4B015C01A7019601C701B601A0
:104050000E941CEEA5019401DCCF11E0E0E08FEF9F
:104060008C0F8430D0F4C150DD0BCC0FDD1FCC0F92
:10407000DD1FEC0FFD2FF11DEE0FFF1FEE0FFF1FD9
:10408000E95FFC4E60817181828193819B01AC016B
:104090000E941CEEC10FD11DB2CF61E06E0F8C2FBC
:1040A0000E94A81F6B017C0161E0610F8C2FC8CFBB
:1040B0009AE0899FF0011124E60FF11DEE0FFF1F1A
:1040C000EE0FFF1FEE50FD4F608171818281938161
:1040D000089594E0899FF0011124E60FF11DEE0F81
:1040E000FF1FEE0FFF1FE95FFC4E6081718182812F
:1040F000938108952F923F924F925F926F927F9299
:104100008F929F92AF92BF92CF92DF92EF92FF92E7
:104110000F931F93CF93DF93CDB7DEB72E970FB6D4
:10412000F894DEBF0FBECDBF8A83162F4983822E3F
:10413000262F30E03A872987E4E08E9FC0011124C2
:104140009C878B87FC01E20FF31FEE0FFF1FEE0F22
:10415000FF1FE95FFC4E60817181828193819B0129
:10416000AC010E941DF0882309F42EC19A81E981D7
:104170009E0F882D810F24E0929FF0011124A985C4
:10418000BA85AE0FBF1FAA0FBB1FAA0FBB1FA95F27
:10419000BC4EAC901196BC9011971296CC90129791
:1041A0001396DC903981930F24E0929FA001112493
:1041B000A985BA85A40FB51FAA0FBB1FAA0FBB1FE5
:1041C000A95FBC4EEC901196FC90119712960C9141
:1041D000129713961C91282F30E0AB85BC85A20F57
:1041E000B31FAA0FBB1FAA0FBB1FA95FBC4E9C9099
:1041F00011967C90119712966C90129713965C9082
:10420000880D90E0AB85BC85A80FB91FAA0FBB1F16
:10421000AA0FBB1FA95FBC4E8C9011964C901197B2
:1042200012963C90129713962C90E20FF31FEE0F0C
:10423000FF1FEE0FFF1FE95FFC4E308139832181A4
:104240002A8332813B8323812C83FA01E80FF91FF3
:10425000EE0FFF1FEE0FFF1FE95FFC4E30813D8325
:1042600081818E8392819F83238128879701A80172
:10427000B701C8010E941DF0882321F0E12CF12C28
:1042800000E010E09501A601B501C6010E941DF0F5
:10429000882311F057016801282D342D432D522D0C
:1042A000682D742D832D922D0E941DF0882321F0FE
:1042B000812C412C312C212C292D372D462D552D8B
:1042C000692D772D862D952D0E941DF0882321F0D4
:1042D000982C742C632C522C2D813E814F81588553
:1042E0006D817E818F8198850E941DF0882321F049
:1042F0001D821E821F82188629813A814B815C8132
:1043000069817A818B819C810E941DF0882341F014
:104310003D8139838E818A839F819B83E885EC83ED
:104320002B853C8589859A85280F391F220F331FDD
:10433000220F331F295F3C4E3A8729879501A6013A
:10434000B501C6010E941CEE9701A8010E941BEE58
:104350006B017C01292D372D462D552D692D772D8B
:10436000862D952D0E941CEE282D342D432D522D87
:104370000E941BEE9B01AC01C701B6010E941CEE1E
:104380006B017C0129813A814B815C8169817A8151
:104390008B819C810E941CEE2D813E814F8158852E
:1043A0000E941BEE9B01AC01C701B6010E941CEEEE
:1043B00020E030E040E450E40E949FEEE985FA8579
:1043C00060837183828393832E960FB6F894DEBF49
:1043D0000FBECDBFDF91CF911F910F91FF90EF9056
:1043E000DF90CF90BF90AF909F908F907F906F9015
:1043F0005F904F903F902F9008950C94857E0C9481
:10440000857E0C94857E0C94857ECF92DF92EF9210
:10441000FF92CF93C82F0E94D8746B017C0124EACD
:1044200030E74DE75FE3609173057091740580910B
:104430007505909176050E9470E787FD18C08AEF98
:1044400090E0A0E0B0E08C0D9D1DAE1DBF1D8093DF
:10445000910590939205A0939305B0939405C09312
:104460001001CF91FF90EF90DF90CF90089580E002
:1044700090E0DC01E8CF8F929F92AF92BF92EF92D3
:10448000FF920F931F93CF93DF93EC018B01E42EE8
:10449000F22E8091EC2B9091ED2B8C179D07C9F19A
:1044A00029E2C63DD20709F03FC08B5F9E4371F4FD
:1044B0000E94D8746E517B4F8F4F9F4F609367055A
:1044C000709368058093690590936A05D093ED2BEE
:1044D000C093EC2B30E020E00093EA121093EB1233
:1044E0002093EC123093ED12E092DF12F092D91289
:1044F000CB5FDE4321F41092AA051092660582E09C
:1045000080935C0181E08093FA1210929C051092D6
:10451000A905DF91CF911F910F91FF90EF90BF9070
:10452000AF909F908F9008952EE3CB3FD20771F606
:10453000865D994219F0CBEFDEE3C8CF0E94D874B4
:104540008090670590906805A0906905B0906A0515
:10455000681979098A099B0997FFEDCF8091131497
:104560008770873041F7CDE5D7E5B0CF21E02093C4
:10457000AA056093730570937405809375059093F5
:10458000760520E040E070E060E08091E0129091DC
:10459000E1120C943B226DEC7CEC8CEC9CE30C94D3
:1045A000B6226DEC7CEC8CEC9DE30C94B62260E0C2
:1045B00070E080E89FE30C94B62260E070E080E257
:1045C00091E40C94B6220C94C8990C9499980C948C
:1045D0002DA7CF93DF93CDB7DEB720E24F8158856B
:1045E0006E818D810E9412C0DF91CF9108950C944D
:1045F0008BA80C948BA86FE67CE383E00C94AFDA75
:1046000062E27EE382E00C94AFDA67E27EE381E06F
:104610000C94AFDA6CE27EE380E00C94AFDACF92D8
:10462000DF92EF92FF92CF93DF9300D000D0CDB70F
:10463000DEB70E9477E720E030E04AE754E40E94CA
:104640009FEE20E030E0A9010E941CEE6B017C018E
:1046500020E030E0A9010E9470E727E137EB41E557
:1046600058E387FF04C027E137EB41E558EBC7016A
:10467000B6010E941CEE69837A838B839C83CE01F2
:1046800001960E9483C00F900F900F900F90DF91C2
:10469000CF91FF90EF90DF90CF9008950F931F93ED
:1046A000CF93DF93CDB7DEB76E970FB6F894DEBF2A
:1046B0000FBECDBF80910413E82FF0E0EE0FFF1F77
:1046C000E25FFE4F91819F9390819F931F928F9302
:1046D00085E398E09F938F938E010F5F1F4F1F9389
:1046E0000F930E9407E74FE350E0B8018CEC95E090
:1046F0000E94A8F00FB6F894DEBF0FBECDBF6E9635
:104700000FB6F894DEBF0FBECDBFDF91CF911F91E2
:104710000F910895AF92BF92CF92DF92EF92FF92E6
:104720000F931F93CF93DF936B01E9014A3009F494
:10473000B8C0453109F06AC0DB011296ED91FC91D9
:10474000F280C681D781139A88E28A950000E9F742
:10475000BF2CB29420EFB22230E1A32EAF0C48E27E
:10476000E42E88EF0E943F1F8E2D8A950000E9F706
:10477000BFE1BF1508F481C08F2D807780680E944B
:104780003F1F8B2D0E943F1F8E2D8A950000E9F759
:1047900080E80E943F1F80E00E943F1F8E2D8A9577
:1047A0000000E9F78AEF0E943F1F8E2D8A950000D6
:1047B000E9F78E01005F1F4F8881807F0E943F1FB5
:1047C00089918295807F0E943F1FC017D107A1F772
:1047D0008E2D8A950000E9F7F394E0E1BE0EFA1001
:1047E000C0CF1398D6011296CD91DC91CE010E94D4
:1047F0007A758111EEC1DF91CF911F910F91FF90DA
:10480000EF90DF90CF90BF90AF900895FB010281B1
:104810001381423309F498C108F49CC1463409F469
:1048200089C1473409F48CC14B3329F589812B8127
:10483000D80112966C91129713964C91213009F47D
:10484000DFC1233009F0A9C138EF380F582F91E0AC
:10485000431708F490E041E0531708F040E031E0DE
:10486000561708F430E0592F542B352309F0BDC1F9
:10487000942309F0BAC181E0BECF80EE8F0D80682D
:10488000807F0E943F1F8F2D8295807F0E943F1F57
:104890008E2D8A950000E9F780E80E943F1F80E88E
:1048A0007BCF0B9A1398399A4198099A119A139AC7
:1048B00088E28A950000E9F788E790E0CEE9DFE03A
:1048C000FE013197F1F70197D9F788EF0E943F1F5A
:1048D00018E2812F8A950000E9F780E20E943F1FCD
:1048E00080E00E943F1F812F8A950000E9F780E059
:1048F0000E943F1F80E80E943F1F812F8A95000081
:10490000E9F780E00E943F1F80E10E943F1F812F56
:104910008A950000E9F7CE010197F1F7CE010197E2
:10492000F1F7CE010197F1F7CE010197F1F7CE0132
:104930000197F1F7CE010197F1F7CE010197F1F759
:10494000CE010197F1F7CE010197F1F7CE01019762
:10495000F1F7CE010197F1F7CE010197F1F7CE0102
:104960000197F1F7CE010197F1F72197F1F780E276
:104970000E943F1F80E40E943F1F812F8A95000004
:10498000E9F780E20E943F1F80E60E943F1F1A95D0
:104990000000E9F710E0D0E0C8E28D2F8077806852
:1049A0000E943F1F812F0E943F1F8C2F8A9500007D
:1049B000E9F780E80E943F1F80E00E943F1F8C2F94
:1049C0008A950000E9F78AEF0E943F1F8C2F8A9595
:1049D0000000E9F780E21198000000004198000013
:1049E0000000119A0000000011980000000041989A
:1049F00000000000119A0000000011980000000063
:104A0000419800000000119A000000001198000079
:104A10000000419800000000119A00000000119869
:104A200000000000419800000000119A0000000002
:104A3000119800000000419800000000119A000049
:104A40000000119800000000419800000000119A39
:104A500000000000119800000000419800000000D4
:104A6000119A000000001198000000004198000019
:104A70000000119A00000000119800000000419809
:104A800000000000119A00000000119800000000D2
:104A9000419800000000119A0000000011980000E9
:104AA0000000419800000000119A000000001198D9
:104AB00000000000419800000000119A0000000072
:104AC000119800000000419800000000119A0000B9
:104AD0000000119800000000419800000000119AA9
:104AE0000000000011980000000041980000000044
:104AF000119A000000009C2F9A950000E9F7815060
:104B000009F069CF88EF0E943F1F8C2F8A95000023
:104B1000E9F7DF5F105FD03209F03FCF80E00E94FD
:104B20003F1F80EC0E943F1FCA950000E9F71398D1
:104B300081E061CED80115968C91888381E05BCEAF
:104B4000F80181818883FACFB901C8010E94647598
:104B500081E051CE443171F0473109F08CCE18829A
:104B6000F80182818983858181508A8383818B8347
:104B700081E041CED80115964C91159750E0440F35
:104B8000551F70E060E016968D919C910E9478F020
:104B9000C8010E94907581E02ECE481708F46BCEB4
:104BA000861708F468CEFA80E12CD12C243070F4FA
:104BB0001DC0BE01C8010E946475898198819D0D48
:104BC00098838E0D8983FF0C09F455CEF7FEF6CF3E
:104BD000F0CF4D8150E0440F551F70E060E08E81B2
:104BE0009F810E9478F081E006CEFA8030E0F901E2
:104BF000E657FE4FD0802A573E4FF901E080E6CFBE
:104C000058E0580F382F23CE20913405022E000C87
:104C1000330B8217130641F0809334056CE57DE079
:104C200082EF9BE20C942E760895DF92EF92FF9232
:104C30000F931F93CF93DF93EC01D62E1CAD0BADDA
:104C40007C0184E0E80EF11CE98DFA8DC70109951D
:104C5000412F480F2D2D602FC7010E9476779BAD05
:104C6000890F8BAF81E090E0DF91CF911F910F9181
:104C7000FF90EF90DF9008958F929F92AF92BF9236
:104C8000CF92DF92EF92FF920F931F93CF93DF9318
:104C9000EC018B017A018A859B858617970731F095
:104CA000888199810E942E761B870A87888599853D
:104CB000019641F50C81DA808E81D80EA880B980EA
:104CC000D5015596ED91FC91C5010995080F10E0AD
:104CD000F70121917F0121114FC08E819F81810FAA
:104CE000911D9F838E8390E080E0DF91CF911F9193
:104CF0000F91FF90EF90DF90CF90BF90AF909F907B
:104D00008F900895CE80DF80F701008110E00023AE
:104D100021F1A880B980602FC5010E948676D50157
:104D200051961C9111954701BFEF8B1A9B0AF40114
:104D300081914F01882351F0D50150969C91190F14
:104D4000082F682FC5010E948676F1CF003281F0CE
:104D5000F50183899189890F180FC10ED11C28850F
:104D600039852C153D0508F0A5CF81E090E0BDCF39
:104D7000D50150968C91F0CF402F6D2DC5010E942A
:104D80007677D80E180FA4CFEF92FF920F931F9350
:104D9000CF93DF93CDB7DEB72C970FB6F894DEBF75
:104DA0000FBECDBF1091292C00912A2C20917705A0
:104DB00021111BC042ED57E0602F812F0E94BCA93A
:104DC00090E080E0180F1093292C00932A2C99274B
:104DD0002C960FB6F894DEBF0FBECDBFDF91CF91FA
:104DE0001F910F91FF90EF900895E090F62BF090B7
:104DF000F72B22EF3BE23A832983212F30E03C83DB
:104E00002B83202F30E03E832D8318861F827A87E4
:104E100069871C861B869E012F5F3F4F47E55BE13C
:104E2000BC01C7010E9481A9B70182EF9BE20E94E9
:104E30002E768F819885C6CFEF92FF920F931F93A6
:104E4000CF93DF93CDB7DEB72C970FB6F894DEBFC4
:104E50000FBECDBF1091292C00912A2C20917705EF
:104E600021111BC042EB57E0602F812F0E94BCA98B
:104E700090E080E0180F1093292C00932A2C99279A
:104E80002C960FB6F894DEBF0FBECDBFDF91CF9149
:104E90001F910F91FF90EF900895E090F62BF09006
:104EA000F72B22EF3BE23A832983212F30E03C832A
:104EB0002B83202F30E03E832D8318861F827A8734
:104EC00069871C861B869E012F5F3F4F4AE55BE189
:104ED000BC01C7010E9481A9B70182EF9BE20E9439
:104EE0002E768F819885C6CF0F931F9380912514BE
:104EF000813019F50E94D8740091B4051091B50560
:104F00002091B6053091B705601B710B820B930B96
:104F100028EE33E040E050E00E94B8ED6091B0052B
:104F20007091B1058091B2059091B305620F731F26
:104F3000841F951F1F910F91089560917F137091A9
:104F400080138091811390918213D6CF10922514F3
:104F50001092B4051092B5051092B6051092B705DF
:104F600010927F131092801310928113109282136B
:104F70001092B0051092B1051092B2051092B305CF
:104F80000895809125148130F1F08230C9F40E9497
:104F900074276093B0057093B1058093B205909328
:104FA000B30581E0809325140E94D8746093B40502
:104FB0007093B5058093B6059093B70581E0089589
:104FC0000E94A627EECF80E008958091251481509D
:104FD000823070F4109225140E94D87460937F136D
:104FE00070938013809381139093821381E00895CE
:104FF00080E00895CF93DF93FC0101900020E9F752
:105000003197EF01C81BD90BC535D1052CF0229182
:10501000207C2038E1F3F5CFDD27AE01BC0188EA22
:1050200093E10E94A8F0C855DC4E18821092AF059B
:10503000DF91CF9108958093AB0520E040E070E0D0
:1050400060E085E798E30C943B220F931F93CF9386
:10505000DF938C016F3F19F41092211460E02091CE
:105060002114862F062E000C990B2817190609F01B
:1050700004F560932114C8010E94BDE6800F911FC2
:10508000EC01C01BD10BC535D1053CF00197FC01EB
:105090002491207C2038D1F3F3CFDD27AE01B80175
:1050A00088EA93E10E94DEE6C855DC4E1882109231
:1050B000AF05DF91CF911F910F910895CF93DF93AB
:1050C000CDB7DEB78D8190912114891778F0809348
:1050D00021149E01285F3F4F4E815F8164E570E09F
:1050E00088EA93E10E9437E71092AF05DF91CF91F4
:1050F00008950F931F930E94D8740091A5051091F5
:10510000A6052091A7053091A805601B710B820BA5
:10511000930B97FD0CC089B183FB882780F991E040
:1051200089274A9B8260309B84608093A40580918C
:10513000A40581709091A40591FD82609091A305D2
:10514000981749F0813009F148F0823079F08330C6
:1051500091F08093A3051F910F910895913079F0FC
:105160009230B9F79091A20591500CC0992339F073
:105170009330C1F3EECF9130A9F3923051F7909173
:10518000A2059F5F9093A205E4CF992359F3933032
:1051900001F7F5CF81E080937705EEE8FBE28BED38
:1051A0009BE0918380831382128253985B9A52987A
:1051B0005A9A3898409A0E9479281092A205089528
:1051C000282F1092E6128091EA129091EB12A09192
:1051D000EC12B091ED12B7FF08C01092EA121092D3
:1051E000EB121092EC121092ED128091950588232B
:1051F00031F08091EA128093DE121092FA128091BF
:10520000D9121816FCF4082E000C990B821B910978
:105210002091DE12022E000C330B2817390794F070
:1052200097FF02C090E080E08093DE12092E000C10
:10523000AA0BBB0B8093EA129093EB12A093EC1293
:10524000B093ED128091DE126623A9F09091DF12E7
:10525000891714F48093DF122091DF12022E000CC4
:10526000330B2C5F3F4F482F082E000C550B241793
:1052700035071CF484508093DF120895E091660591
:10528000E63010F581E08E0F809366054091EA12BA
:105290005091EB126091EC127091ED129091DF122F
:1052A0008091D91228E0E29FF0011124EA5CFA4FC4
:1052B0002091EC2B3091ED2B31832083428353835B
:1052C00064837583968387830895CF93DF93EC017E
:1052D0000E943E2920E040E070E060E0CE01DF91D6
:1052E000CF910C943B2220E040E070E060E08BEF37
:1052F0009EE30C943B2210925B140E946A780C94FB
:1053000073290F931F93CF93C42F062F062E000CE3
:10531000110B67FD12C0F801EE0FFF1FEE59FC4E96
:10532000808191811816190644F4853021E0920796
:1053300014F084E091E00E94277EC7FD15C0EC2F99
:10534000EE0FFF0BE45AFC4E80819181181619066E
:105350005CF48337910514F083E790E09093781321
:10536000809377130E94E474F801E05AFC4E808128
:1053700080935B14CF911F910F910C947329E0914E
:105380006605EE2389F0E150E093660588E0E89F2A
:10539000F0011124EA5CFA4F628173812781468112
:1053A000808191810C943B220C947329CF92DF92DF
:1053B000EF92FF920F931F93CF93DF93D09025141A
:1053C00061E081E00E94E028C091DF1285E0E82ED4
:1053D000EC0E14E01C1B03E00C1B82E0F82EFC1A00
:1053E000D1E0DC1BCC2EC194C1112FC08091DE1204
:1053F0008823B1F080915C01882359F081E090917D
:10540000DE12911180E024E045EE5AE06C2D0E94FE
:1054100012C0CF5FEC12E8CF85E08093D9120CC0A8
:105420008091D8121092D812882321F30E94BF29AC
:105430008091FA128823F1F2DF91CF911F910F91A1
:10544000FF90EF90DF90CF90089581E0D81225C0B3
:10545000C13009F046C08091DE12813079F0809130
:105460005C018823B1F281E09091DE12913009F065
:1054700080E023E040EE5AE06D2FC9CF8091D81232
:105480001092D812882359F38AEB94E40E9465297C
:105490008091FA12882319F3CFCFC13011F5809192
:1054A000DE12813079F080915C01882309F4B1CF5C
:1054B00081E09091DE12913009F080E023E049ED27
:1054C0005AE0DACF8091D8121092D812882359F37B
:1054D00085E99CE20E9465298091FA12882319F3DC
:1054E000ABCFC23019F58091DE12823081F080910D
:1054F0005C01882309F48DCF81E09091DE12923017
:1055000009F080E023E04DEC5AE06F2D80CF8091D0
:10551000D8121092D812882351F382EA96E40E949E
:1055200065298091FA12882311F386CFC33091F553
:105530008091DE12833081F080915C01882309F430
:1055400068CF81E09091DE12933009F080E023E093
:105550004FEB5AE0602F5BCF8091D8121092D81297
:10556000882351F386E39EE20E9465298091FA1216
:10557000882311F361CF8091D8121092D81288231A
:1055800081F085EE9FE20E9465298091FA128823BE
:1055900041F052CFC43009F03CCF8091DE1284300C
:1055A00051F380915C01882309F433CF81E090911D
:1055B000DE12943009F080E023E041EB5AE0612FE5
:1055C00026CF8F929F92AF92BF92CF92DF92EF92AF
:1055D000FF920F931F93CF93DF9361E081E00E94CE
:1055E000E028C091DF1285E0982E9C0E90E3E92E12
:1055F0009BE0F92ED3E0DC1B20E2C22E2BE0D22E62
:1056000012E01C1B31E8A32E3BE0B32E01E00C1B83
:105610008C2E8194C11133C08091DE128823B1F0A9
:1056200080915C01882359F081E09091DE12911104
:1056300080E024E040E65BE0682D0E9412C0CF5F6E
:10564000C911E8CF84E08093D9120CC08091D812A0
:105650001092D812882321F30E94BF298091FA1258
:105660008823F1F2DF91CF911F910F91FF90EF907E
:10567000DF90CF90BF90AF909F908F900895C130F2
:1056800021F58091DE12813079F080915C018823D0
:10569000B1F21F92BF92AF920F9381E09091DE1210
:1056A000913039F180E025C08091D8121092D81243
:1056B000882359F340E060E090E080E00E94812977
:1056C0008091FA12882309F3CDCFC230E9F5809199
:1056D000DE128230B9F080915C01882309F4AFCFEB
:1056E0001F92DF92CF921F9381E09091DE12923051
:1056F000C9F68F930E94E9220F900F900F900F90A0
:105700000F909DCF8091D8121092D812882319F350
:105710004FEF60E090E080E00E9481298091FA12D2
:105720008823C9F29FCF8091D8121092D812882373
:1057300091F040E06FEF8FEF9FEF0E948129809101
:10574000FA12882341F08ECFC33009F078CF8091D0
:10575000DE12833041F380915C01882309F46FCF1E
:105760001F92FF92EF92DF9381E09091DE129330CF
:1057700009F098CFBECF8F929F92AF92BF92CF92F7
:10578000DF92EF92FF920F931F93CF93DF9361E02D
:1057900081E00E94E028C091DF1285E0982E9C0EE7
:1057A00090E4E92E9BE0F92ED3E0DC1B20E5C22E2D
:1057B0002BE0D22E12E01C1B35E7A32E3BE0B32ECC
:1057C00001E00C1B8C2E8194C11133C08091DE123C
:1057D0008823B1F080915C01882359F081E0909199
:1057E000DE12911180E024E040E65BE0682D0E942B
:1057F00012C0CF5FC911E8CF84E08093D9120CC0EA
:105800008091D8121092D812882321F30E94BF29C8
:105810008091FA128823F1F2DF91CF911F910F91BD
:10582000FF90EF90DF90CF90BF90AF909F908F90C0
:105830000895C13021F58091DE12813079F0809198
:105840005C018823B1F21F92BF92AF920F9381E067
:105850009091DE12913039F180E025C08091D8120C
:105860001092D812882359F341E061E090E080E083
:105870000E9481298091FA12882309F3CDCFC2308A
:10588000E9F58091DE128230B9F080915C018823C5
:1058900009F4AFCF1F92DF92CF921F9381E09091D6
:1058A000DE129230C9F68F930E94E9220F900F907A
:1058B0000F900F900F909DCF8091D8121092D81218
:1058C000882319F34FEF61E090E080E00E94812986
:1058D0008091FA128823C9F29FCF8091D81210923A
:1058E000D812882391F041E06FEF8FEF9FEF0E9475
:1058F00081298091FA12882341F08ECFC33009F0BC
:1059000078CF8091DE12833041F380915C0188234F
:1059100009F46FCF1F92FF92EF92DF9381E0909195
:10592000DE12933009F098CFBECFAF92BF92CF92E4
:10593000DF92EF92FF920F931F93CF93DF9361E07B
:1059400081E00E94E028C091DF1285E0B82EBC0EF5
:1059500098EFE92E9AE0F92ED3E0DC1B2DE0C22E61
:105960002BE0D22E12E01C1B01E00C1BAC2EA194EC
:10597000C11131C08091DE128823B1F080915C01A9
:10598000882359F081E09091DE12911180E024E0AB
:105990004BE15BE06A2D0E9412C0CF5FCB11E8CFD4
:1059A00084E08093D9120CC08091D8121092D81242
:1059B000882321F30E94BF298091FA128823F1F2F3
:1059C000DF91CF911F910F91FF90EF90DF90CF90DB
:1059D000BF90AF900895C13011F58091DE128130F3
:1059E00079F080915C018823C1F281E09091DE1210
:1059F000913009F080E023E04DED59E2602FCBCFEC
:105A00008091D8121092D812882359F386E59DE22E
:105A10000E9465298091FA12882319F3D1CFC230F0
:105A200081F59091DE12923071F080915C018823B3
:105A300009F4B3CF81E0923009F080E020E241E147
:105A40005BE0612FA8CF8091D8121092D8128823E2
:105A500061F3D092CB05C092CA058091FA128823D7
:105A600021F3AECF8091D8121092D812882381F002
:105A7000F092CB05E092CA058091FA12882341F09A
:105A80009FCFC33009F089CF9091DE12933051F34C
:105A900080915C01882309F480CF81E0933009F084
:105AA00080E020E24CEF5AE06D2F75CFDF92EF924D
:105AB000FF920F931F93CF93DF9361E081E00E94E9
:105AC000E028C091DF1285E0E82EEC0ED4E0DC1B6C
:105AD00013E01C1B02E00C1B81E0F82EFC1ADC2EEC
